S01200006E756D6265725F6E65772E73726563E0
S11300000C9434000C943E000C943E000C943E007E
S11300100C943E000C943E000C943E000C943E0064
S11300200C943E000C943E000C943E000C943E0054
S11300300C943E000C943E000C943E000C943E0044
S11300400C943E000C943E000C943E000C943E0034
S11300500C943E000C943E000C943E000C943E0024
S11300600C943E000C943E0011241FBECFEFD8E048
S1130070DEBFCDBF0E9440000C94C7020C94000068
S113008084B18F6184B98AB1806F8AB987B188607D
S113009087B987B18B7F87B988B1846088B9329971
S11300A0FECF85B1806185B985B1886085B985B198
S11300B0846085B985B1826085B985B1816085B96F
S11300C08BB180688BB98BB180628BB98BB1806145
S11300D08BB98BB180628BB92FEF83ED90E3215004
S11300E080409040E1F700C000003299D8CF85B13C
S11300F08F7E85B985B1877F85B985B18B7F85B9B9
S113010085B18D7F85B985B18E7F85B98BB18F77A8
S11301108BB98BB18F7B8BB98BB18F7D8BB98BB145
S11301208F7E8BB985B1806185B985B1886085B9C9
S113013085B1846085B98BB180688BB98BB18064DB
S11301408BB98BB180628BB98BB180618BB92FEF86
S113015083ED90E3215080409040E1F700C000001F
S113016032999DCF85B18F7E85B985B1877F85B959
S113017085B18B7F85B985B18D7F85B985B18E7F3A
S113018085B98BB18F778BB98BB18F7B8BB98BB1E1
S11301908F7D8BB98BB18F7E8BB985B1806185B929
S11301A085B1886085B985B1846085B985B182607F
S11301B085B985B1816085B98BB180688BB98BB104
S11301C080648BB98BB180628BB98BB180618BB940
S11301D02FEF83ED90E3215080409040E1F700C081
S11301E0000032995CCF85B18F7E85B985B1877F58
S11301F085B985B18B7F85B985B18D7F85B985B189
S11302008E7F85B98BB18F778BB98BB18F7B8BB98F
S11302108BB18F7D8BB98BB18F7E8BB985B18061AA
S113022085B985B1886085B985B1846085B98BB19C
S113023080628BB98BB180618BB92FEF83ED90E332
S1130240215080409040E1F700C00000329927CF50
S113025085B18F7E85B985B1877F85B985B18B7F5F
S113026085B985B18D7F85B985B18E7F85B98BB10F
S11302708F778BB98BB18F7B8BB98BB18F7D8BB91A
S11302808BB18F7E8BB985B1806185B985B184606E
S113029085B985B1826085B985B1816085B98BB135
S11302A080688BB98BB180648BB98BB180628BB958
S11302B08BB180618BB92FEF83ED90E321508040A7
S11302C09040E1F700C000003299E9CE85B18F7EFD
S11302D085B985B1877F85B985B18B7F85B985B1AE
S11302E08D7F85B985B18E7F85B98BB18F778BB9B9
S11302F08BB18F7B8BB98BB18F7D8BB98BB18F7E9B
S11303008BB985B1806185B98BB180688BB98BB1AC
S113031080648BB985B1846085B985B1826085B903
S11303208BB180628BB98BB180618BB92FEF83ED78
S113033090E3215080409040E1F700C000003299E2
S1130340AECE85B18F7E85B985B1877F85B985B1FC
S11303508B7F85B985B18D7F85B985B18E7F85B950
S11303608BB18F778BB98BB18F7B8BB98BB18F7D31
S11303708BB98BB18F7E8BB985B1886085B985B116
S1130380846085B98BB180688BB98BB180648BB97B
S11303908BB180628BB98BB180618BB92FEF83ED08
S11303A090E3215080409040E1F700C000002FEF1F
S11303B083ED90E3215080409040E1F700C00000BD
S11303C032996DCE85B18F7E85B985B1877F85B928
S11303D085B18B7F85B985B18D7F85B985B18E7FD8
S11303E085B98BB18F778BB98BB18F7B8BB98BB17F
S11303F08F7D8BB98BB18F7E8BB985B1806185B9C7
S113040085B1886085B985B1846085B985B182601C
S113041085B98BB180648BB98BB180628BB98BB198
S113042080618BB92FEF83ED90E3215080409040A1
S1130430E1F700C00000329932CE85B18F7E85B9D4
S113044085B1877F85B985B18B7F85B985B18D7F6E
S113045085B985B18E7F85B98BB18F778BB98BB117
S11304608F7B8BB98BB18F7D8BB98BB18F7E8BB921
S113047085B1806185B985B1886085B98BB18064A7
S11304808BB985B1816085B985B1826085B98BB13D
S113049080628BB98BB180618BB92FEF83ED90E3D0
S11304A0215080409040E1F700C000003299F7CD20
S11304B085B18F7E85B985B1877F85B985B18B7FFD
S11304C085B985B18D7F85B985B18E7F85B98BB1AD
S11304D08F778BB98BB18F7B8BB98BB18F7D8BB9B8
S11304E08BB18F7E8BB985B1886085B985B1846005
S11304F085B98BB180628BB98BB180618BB92FEFD9
S113050083ED90E3215080409040E1F700C000006B
S11305103299C5CD85B18F7E85B985B1877F85B97F
S113052085B18B7F85B985B18D7F85B985B18E7F86
S113053085B98BB18F778BB98BB18F7B8BB98BB12D
S11305408F7D8BB98BB18F7E8BB985B1806185B975
S113055085B1886085B985B1846085B985B18260CB
S113056085B985B1816085B98BB180688BB98BB150
S113057080628BB98BB180618BB92FEF83ED90E3EF
S1130580215080409040E1F700C0000088CDF894ED
S1050590FFCF97
S9030000FC
