:100000000C9434000C943E000C943E000C943E0082
:100010000C943E000C943E000C943E000C943E0068
:100020000C943E000C943E000C943E000C943E0058
:100030000C943E000C943E000C943E000C943E0048
:100040000C943E000C943E000C943E000C943E0038
:100050000C943E000C943E000C943E000C943E0028
:100060000C943E000C943E0011241FBECFEFD8E04C
:10007000DEBFCDBF0E9440000C94C1020C94000072
:1000800084B18F6184B98AB1846E8AB98AB180647F
:100090008AB94A99FECF85B1806185B985B18860FA
:1000A00085B985B1846085B985B1826085B985B12E
:1000B000816085B98BB180688BB98BB180628BB957
:1000C0008BB184608BB98BB180628BB92FEF83EDDC
:1000D00090E3215080409040E1F700C000004A9931
:1000E000D8CF85B18F7E85B985B1877F85B985B138
:1000F0008B7F85B985B18D7F85B985B18E7F85B9B7
:100100008BB18F778BB98BB18F7B8BB98BB18F7D97
:100110008BB98BB18B7F8BB985B1806185B985B186
:10012000886085B985B1846085B98BB180688BB9E9
:100130008BB180648BB98BB180628BB98BB18460D9
:100140008BB92FEF83ED90E3215080409040E1F791
:1001500000C000004A999DCF85B18F7E85B985B1D9
:10016000877F85B985B18B7F85B985B18D7F85B94D
:1001700085B18E7F85B98BB18F778BB98BB18F7B32
:100180008BB98BB18F7D8BB98BB18B7F8BB985B1DF
:10019000806185B985B1886085B985B1846085B98C
:1001A00085B1826085B985B1816085B98BB1806880
:1001B0008BB98BB180648BB98BB180628BB98BB1F9
:1001C00084608BB92FEF83ED90E321508040904005
:1001D000E1F700C000004A995CCF85B18F7E85B9F8
:1001E00085B1877F85B985B18B7F85B985B18D7FD5
:1001F00085B985B18E7F85B98BB18F778BB98BB17E
:100200008F7B8BB98BB18F7D8BB98BB18B7F8BB98A
:1002100085B1806185B985B1886085B985B1846013
:1002200085B98BB180628BB98BB184608BB92FEFAC
:1002300083ED90E3215080409040E1F700C0000042
:100240004A9927CF85B18F7E85B985B1877F85B9DA
:1002500085B18B7F85B985B18D7F85B985B18E7F5D
:1002600085B98BB18F778BB98BB18F7B8BB98BB104
:100270008F7D8BB98BB18B7F8BB985B1806185B94F
:1002800085B1846085B985B1826085B985B18160A9
:1002900085B98BB180688BB98BB180648BB98BB118
:1002A00080628BB98BB184608BB92FEF83ED90E3C3
:1002B000215080409040E1F700C000004A99E9CE0B
:1002C00085B18F7E85B985B1877F85B985B18B7FF3
:1002D00085B985B18D7F85B985B18E7F85B98BB1A3
:1002E0008F778BB98BB18F7B8BB98BB18F7D8BB9AE
:1002F0008BB18B7F8BB985B1806185B98BB18068FB
:100300008BB98BB180648BB985B1846085B985B1B7
:10031000826085B98BB180628BB98BB184608BB9F7
:100320002FEF83ED90E3215080409040E1F700C033
:1003300000004A99AECE85B18F7E85B985B1877FA1
:1003400085B985B18B7F85B985B18D7F85B985B13B
:100350008E7F85B98BB18F778BB98BB18F7B8BB942
:100360008BB18F7D8BB98BB18B7F8BB985B1886059
:1003700085B985B1846085B98BB180688BB98BB143
:1003800080648BB98BB180628BB98BB184608BB97F
:100390002FEF83ED90E3215080409040E1F700C0C3
:1003A00000002FEF83ED90E3215080409040E1F773
:1003B00000C000004A996DCE85B18F7E85B985B1A8
:1003C000877F85B985B18B7F85B985B18D7F85B9EB
:1003D00085B18E7F85B98BB18F778BB98BB18F7BD0
:1003E0008BB98BB18F7D8BB98BB18B7F8BB985B17D
:1003F000806185B985B1886085B985B1846085B92A
:1004000085B1826085B98BB180648BB98BB1806214
:100410008BB98BB184608BB92FEF83ED90E32150C2
:1004200080409040E1F700C000004A9932CE85B18B
:100430008F7E85B985B1877F85B985B18B7F85B979
:1004400085B18D7F85B985B18E7F85B98BB18F7769
:100450008BB98BB18F7B8BB98BB18F7D8BB98BB106
:100460008B7F8BB985B1806185B985B1886085B98D
:100470008BB180648BB985B1816085B985B18260AB
:1004800085B98BB180628BB98BB184608BB92FEF4A
:1004900083ED90E3215080409040E1F700C00000E0
:1004A0004A99F7CD85B18F7E85B985B1877F85B9AA
:1004B00085B18B7F85B985B18D7F85B985B18E7FFB
:1004C00085B98BB18F778BB98BB18F7B8BB98BB1A2
:1004D0008F7D8BB98BB18B7F8BB985B1886085B9E6
:1004E00085B1846085B98BB180628BB98BB1846032
:1004F0008BB92FEF83ED90E3215080409040E1F7DE
:1005000000C000004A99C5CD85B18F7E85B985B1FF
:10051000877F85B985B18B7F85B985B18D7F85B999
:1005200085B18E7F85B98BB18F778BB98BB18F7B7E
:100530008BB98BB18F7D8BB98BB18B7F8BB985B12B
:10054000806185B985B1886085B985B1846085B9D8
:1005500085B1826085B985B1816085B98BB18068CC
:100560008BB98BB180628BB98BB184608BB92FEF63
:1005700083ED90E3215080409040E1F700C00000FF
:0605800088CDF894FFCFC6
:00000001FF
